:100000000C9434000C9451000C9451000C94510049
:100010000C9451000C9451000C9451000C94E30189
:100020000C9451000C9451000C9451000C94B201AA
:100030000C9451000C9451000C9481010C945100CB
:100040000C9451000C9451000C9451000C945100EC
:100050000C9451000C9451000C9451000C945100DC
:100060000C9451000C94510011241FBECFEFD8E026
:10007000DEBFCDBF11E0A0E0B1E0ECEFF8E002C0E0
:1000800005900D92A834B107D9F721E0A8E4B1E0BA
:1000900001C01D92AD34B207E1F70E944A020C94F0
:1000A0007C040C9400004F925F926F927F928F922B
:1000B0009F92AF92BF92CF92DF92EF92FF920F93F7
:1000C0001F93CF93DF93EC0180917C00857E82604B
:1000D00080937C0080917A00806480937A00809184
:1000E0007A0086FDFCCF609178007091790080E005
:1000F00090E00E94580320E030E040E854E40E9481
:10010000EB0320E030EC4FE754E40E94E6026B0181
:100110007C016C837D838E839F8311E028A939A99C
:100120004AA95BA90E94E60387FD10E0812F90E0B9
:100130009FA38EA3111104C0812C912C540106C0E1
:10014000812C912C90E8A92E9FE3B92E8C869D8658
:10015000AE86BF8601E010E02CA93DA94EA95FA99B
:10016000C501B4010E94E60387FF02C000E010E071
:1001700019A308A311E02CA53DA54EA55FA5C701B5
:10018000B6010E94E60387FD10E0812F90E09DA359
:100190008CA3111104C0412C512C320106C0412CFA
:1001A000512C80E8682E8FE3782E488659866A861F
:1001B0007B8601E010E0A5019401C301B2010E9419
:1001C000E603181614F000E010E01F8F0E8F11E008
:1001D00028A539A54AA55BA5C701B6010E94E6037B
:1001E00087FD10E0812F90E09BA38AA3111104C02A
:1001F00060E070E0CB0104C060E070E080E89FE365
:10020000688B798B8A8B9B8B01E010E0A3019201B4
:100210000E94E603181614F000E010E01D8F0C8F0A
:10022000FE01EA5BFF4F808191818230910561F090
:100230008330910599F00197C9F416BC80916E0046
:10024000826080936E0016C0109285001092840028
:1002500080916F00826080936F000CC01092B2009A
:100260008091700082608093700004C081E090E013
:100270000E947C0478949FB7F89480914A019FBFB4
:100280008823C9F310924A01EEADFFAD8C8D9D8D90
:10029000892B19F08081826002C080818D7F8083EC
:1002A000FE01E05CFF4F0190F081E02D8E8D9F8D6F
:1002B000892B19F08081846002C080818B7F8083CC
:1002C000FE01EE5BFF4F0190F081E02D88A199A126
:1002D000892B19F08081886002C08081877F8083AC
:1002E000DF91CF911F910F91FF90EF90DF90CF9012
:1002F000BF90AF909F908F907F906F905F904F9046
:1003000008951F920F920FB60F9211242F933F93CF
:100310008F939F938091480190914901019690930A
:1003200049018093480180914A01813091F02091E8
:1003300048013091490180914B0190914C0128175F
:10034000390738F081E080934A01109249011092F8
:1003500048019F918F913F912F910F900FBE0F9069
:100360001F9018951F920F920FB60F9211242F9382
:100370003F938F939F9380914801909149010196FB
:10038000909349018093480180914A01813091F016
:10039000209148013091490180914B0190914C018D
:1003A0002817390738F081E080934A0110924901FB
:1003B000109248019F918F913F912F910F900FBE06
:1003C0000F901F9018951F920F920FB60F92112445
:1003D0002F933F938F939F93809148019091490170
:1003E0000196909349018093480180914A018130A0
:1003F00091F0209148013091490180914B019091F9
:100400004C012817390738F081E080934A01109297
:100410004901109248019F918F913F912F910F9028
:100420000FBE0F901F901895ECE7F0E02081206C34
:100430002083EAE7F0E0208127682083FC0115AEE5
:1004400014AE239AEE5BFF4F25E230E03183208328
:10045000229A329731832083219AFC0137AF26AF4D
:1004600025B5236025BDEC5BFF4F41E050E0518393
:10047000408322E030E030934C0120934B0124B5BF
:10048000226024BD29EF27BD32965183408380E04E
:1004900090E00895CF92DF92EF92FF9280E091E09A
:1004A0000E941402C12CD12C760160E070E0CB01D7
:1004B0006093000170930101809302019093030106
:1004C00080E091E00E9453008FEFC81AD80AE80A32
:1004D000F80AC701B6010E9458032FE632E143E053
:1004E0005BE30E94EB0320E030E0A9010E947A0266
:1004F000DFCF5058BB27AA270E9491020C94AC036F
:100500000E949E0338F00E94A50320F039F49F3F1B
:1005100019F426F40C949B030EF4E095E7FB0C947D
:100520009503E92F0E94BD0358F3BA1762077307BA
:100530008407950720F079F4A6F50C94DF030EF4F8
:10054000E0950B2EBA2FA02D0B01B90190010C01E3
:10055000CA01A0011124FF27591B99F0593F50F4FB
:10056000503E68F11A16F040A22F232F342F442753
:10057000585FF3CF469537952795A795F04053954B
:10058000C9F77EF41F16BA0B620B730B840BBAF01B
:100590009150A1F0FF0FBB1F661F771F881FC2F786
:1005A0000EC0BA0F621F731F841F48F4879577959A
:1005B0006795B795F7959E3F08F0B0CF9395880F54
:1005C00008F09927EE0F9795879508950E94FA02F3
:1005D0000C94AC030E94A50358F00E949E0340F0C7
:1005E00029F45F3F29F00C94950351110C94E0031A
:1005F0000C949B030E94BD0368F39923B1F3552328
:1006000091F3951B550BBB27AA2762177307840725
:1006100038F09F5F5F4F220F331F441FAA1FA9F3BB
:1006200035D00E2E3AF0E0E832D091505040E695A9
:10063000001CCAF72BD0FE2F29D0660F771F881F0A
:10064000BB1F261737074807AB07B0E809F0BB0BFD
:10065000802DBF01FF2793585F4F3AF09E3F510511
:1006600078F00C9495030C94E0035F3FE4F3983E1C
:10067000D4F3869577956795B795F7959F5FC9F7FA
:10068000880F911D9695879597F90895E1E0660F7B
:10069000771F881FBB1F621773078407BA0720F0F4
:1006A000621B730B840BBA0BEE1F88F7E09508955D
:1006B000E89409C097FB3EF49095809570956195FC
:1006C0007F4F8F4F9F4F9923A9F0F92F96E9BB27B2
:1006D0009395F695879577956795B795F111F8CF2E
:1006E000FAF4BB0F11F460FF1BC06F5F7F4F8F4F99
:1006F0009F4F16C0882311F096E911C0772321F08F
:100700009EE8872F762F05C0662371F096E8862F26
:1007100070E060E02AF09A95660F771F881FDAF77D
:10072000880F9695879597F9089597F99F6780E8C0
:1007300070E060E008959FEF80EC089500240A9433
:100740001616170618060906089500240A941216AC
:100750001306140605060895092E0394000C11F4DF
:10076000882352F0BB0F40F4BF2B11F460FF04C08C
:100770006F5F7F4F8F4F9F4F089557FD9058440FE5
:10078000551F59F05F3F71F04795880F97FB991FF0
:1007900061F09F3F79F087950895121613061406AD
:1007A000551FF2CF4695F1DF08C01616170618063A
:1007B000991FF1CF86957105610508940895E89415
:1007C000BB2766277727CB0197F908950E94580425
:1007D00008F48FEF08950E94FE030C94AC030E946E
:1007E0009E0338F00E94A50320F0952311F00C948D
:1007F00095030C949B0311240C94E0030E94BD0309
:1008000070F3959FC1F3950F50E0551F629FF00163
:10081000729FBB27F00DB11D639FAA27F00DB11D7C
:10082000AA1F649F6627B00DA11D661F829F222705
:10083000B00DA11D621F739FB00DA11D621F839F8C
:10084000A00D611D221F749F3327A00D611D231F62
:10085000849F600D211D822F762F6A2F11249F57B0
:1008600050409AF0F1F088234AF0EE0FFF1FBB1FB3
:10087000661F771F881F91505040A9F79E3F510572
:1008800080F00C9495030C94E0035F3FE4F3983EF2
:10089000D4F3869577956795B795F795E7959F5F1C
:1008A000C1F7FE2B880F911D9695879597F90895AE
:1008B000990F0008550FAA0BE0E8FEEF1616170671
:1008C000E807F907C0F012161306E407F50798F0D9
:1008D000621B730B840B950B39F40A2661F0232BF2
:1008E000242B252B21F408950A2609F4A140A6956E
:0C08F0008FEF811D811D0895F894FFCF4B
:1008FC0000000000000000000000000000000000EC
:10090C0000000000000000000000000000000000DB
:10091C000000000000000000000000000000A043E8
:10092C00000061440000003F6F12033B0000000018
:08093C000000000000000000B3
:00000001FF
