:100000000C9434000C9451000C9451000C94510049
:100010000C9451000C9451000C9451000C942C0140
:100020000C9451000C9451000C9451000C94FB0062
:100030000C9451000C9451000C94CA000C94510083
:100040000C9451000C9451000C9451000C945100EC
:100050000C9451000C9451000C9451000C945100DC
:100060000C9451000C94510011241FBECFEFD8E026
:10007000DEBFCDBF11E0A0E0B1E0ECE0F8E002C0EF
:1000800005900D92A031B107D9F721E0A0E1B1E0D0
:1000900001C01D92A531B207E1F70E947A010C94CC
:1000A00004040C940000CF92DF92EF92FF920F9322
:1000B0001F93CF93DF93EC01C880D980EA80FB8047
:1000C0002DEC3CEC4CE45EE3C701B6010E94160245
:1000D0000E94C5022DEC3CEC4CE45EE30E947303ED
:1000E0009B01AC01C701B6010E94A90101E010E02B
:1000F0002DEC3CEC4CEC5DE30E946E0387FF02C0EC
:1001000000E010E01D830C838E859F858230910571
:1001100061F08330910599F00197C9F416BC809184
:100120006E00826080936E0016C01092850010925F
:10013000840080916F00826080936F000CC01092E9
:10014000B2008091700082608093700004C081E0F2
:1001500090E00E94040478949FB7F8948091120173
:100160009FBF8823C9F310921201EA85FB858C8119
:100170009D81892B19F08081826002C080818D7FF2
:100180008083DF91CF911F910F91FF90EF90DF90CF
:10019000CF9008951F920F920FB60F9211242F93B4
:1001A0003F938F939F93809110019091110101963D
:1001B000909311018093100180911201813091F090
:1001C000209110013091110180911301909114013F
:1001D0002817390738F081E080931201109211013D
:1001E000109210019F918F913F912F910F900FBE10
:1001F0000F901F9018951F920F920FB60F92112417
:100200002F933F938F939F938091100190911101B1
:100210000196909311018093100180911201813019
:1002200091F0209110013091110180911301909172
:1002300014012817390738F081E0809312011092D9
:100240001101109210019F918F913F912F910F906A
:100250000FBE0F901F9018951F920F920FB60F921E
:1002600011242F933F938F939F938091100190912E
:100270001101019690931101809310018091120158
:10028000813091F020911001309111018091130182
:10029000909114012817390738F081E080931201FA
:1002A00010921101109210019F918F913F912F9107
:1002B0000F900FBE0F901F901895FC0185B58360BD
:1002C00085BD21E030E03587248782E090E090937F
:1002D00014018093130184B5826084BD89EF87BDCA
:1002E00037872687219A85E290E09387828780E08E
:1002F00090E00895CF92DF92EF92FF9280E091E03C
:100300000E945D01C12CD12C760160E070E0CB0130
:1003100060930001709301018093020190930301A7
:1003200080E091E00E9453008FEFC81AD80AE80AD3
:10033000F80AC701B6010E9488022FE632E143E0C5
:100340005BE30E94730320E030E0A9010E94AA0150
:10035000DFCF5058BB27AA270E94C1010C941C0371
:100360000E940E0338F00E94150320F039F49F3FDD
:1003700019F426F40C940B030EF4E095E7FB0C94AF
:10038000DC02E92F0E942D0358F3BA1762077307A6
:100390008407950720F079F4A6F50C9467030EF412
:1003A000E0950B2EBA2FA02D0B01B90190010C0185
:1003B000CA01A0011124FF27591B99F0593F50F49D
:1003C000503E68F11A16F040A22F232F342F4427F5
:1003D000585FF3CF469537952795A795F0405395ED
:1003E000C9F77EF41F16BA0B620B730B840BBAF0BD
:1003F0009150A1F0FF0FBB1F661F771F881FC2F728
:100400000EC0BA0F621F731F841F48F4879577953B
:100410006795B795F7959E3F08F0B0CF9395880FF5
:1004200008F09927EE0F9795879508950E942A0264
:100430000C941C030E94150358F00E940E0340F018
:1004400029F45F3F29F00C94DC0251110C946803ED
:100450000C940B030E942D0368F39923B1F35523E9
:1004600091F3951B550BBB27AA27621773078407C7
:1004700038F09F5F5F4F220F331F441FAA1FA9F35D
:1004800035D00E2E3AF0E0E832D091505040E6954B
:10049000001CCAF72BD0FE2F29D0660F771F881FAC
:1004A000BB1F261737074807AB07B0E809F0BB0B9F
:1004B000802DBF01FF2793585F4F3AF09E3F5105B3
:1004C00078F00C94DC020C9468035F3FE4F3983EF0
:1004D000D4F3869577956795B795F7959F5FC9F79C
:1004E000880F911D9695879597F90895E1E0660F1D
:1004F000771F881FBB1F621773078407BA0720F096
:10050000621B730B840BBA0BEE1F88F7E0950895FE
:10051000E89409C097FB3EF490958095709561959D
:100520007F4F8F4F9F4F9923A9F0F92F96E9BB2753
:100530009395F695879577956795B795F111F8CFCF
:10054000FAF4BB0F11F460FF1BC06F5F7F4F8F4F3A
:100550009F4F16C0882311F096E911C0772321F030
:100560009EE8872F762F05C0662371F096E8862FC8
:1005700070E060E02AF09A95660F771F881FDAF71F
:10058000880F9695879597F908950E944F0390F0EC
:100590009F3748F4911116F00C94680360E070E006
:1005A00080E89FEB089526F41B16611D711D811DC7
:1005B0000C94E2020C94FD0297F99F6780E870E0CA
:1005C00060E00895882371F4772321F09850872BF9
:1005D000762F07C0662311F499270DC09051862B02
:1005E00070E060E02AF09A95660F771F881FDAF7AF
:1005F000880F9695879597F908959F3F31F0915010
:1006000020F4879577956795B795880F911D9695F6
:10061000879597F908959FEF80EC089500240A9438
:100620001616170618060906089500240A941216CD
:100630001306140605060895092E0394000C11F400
:10064000882352F0BB0F40F4BF2B11F460FF04C0AD
:100650006F5F7F4F8F4F9F4F089557FD9058440F06
:10066000551F59F05F3F71F04795880F97FB991F11
:1006700061F09F3F79F087950895121613061406CE
:10068000551FF2CF4695F1DF08C01616170618065B
:10069000991FF1CF869571056105089408950E9410
:1006A0003503A0F0BEE7B91788F4BB279F3860F484
:1006B0001616B11D672F782F8827985FF7CF86957C
:1006C00077956795B11D93959639C8F30895E89489
:1006D000BB2766277727CB0197F908950E94E0038F
:1006E00008F48FEF08950E9486030C941C030E9467
:1006F0000E0338F00E94150320F0952311F00C949E
:10070000DC020C940B0311240C9468030E942D034B
:1007100070F3959FC1F3950F50E0551F629FF00154
:10072000729FBB27F00DB11D639FAA27F00DB11D6D
:10073000AA1F649F6627B00DA11D661F829F2227F6
:10074000B00DA11D621F739FB00DA11D621F839F7D
:10075000A00D611D221F749F3327A00D611D231F53
:10076000849F600D211D822F762F6A2F11249F57A1
:1007700050409AF0F1F088234AF0EE0FFF1FBB1FA4
:10078000661F771F881F91505040A9F79E3F510563
:1007900080F00C94DC020C9468035F3FE4F3983E15
:1007A000D4F3869577956795B795F795E7959F5F0D
:1007B000C1F7FE2B880F911D9695879597F908959F
:1007C000990F0008550FAA0BE0E8FEEF1616170662
:1007D000E807F907C0F012161306E407F50798F0CA
:1007E000621B730B840B950B39F40A2661F0232BE3
:1007F000242B252B21F408950A2609F4A140A6955F
:0C0800008FEF811D811D0895F894FFCF3B
:10080C000000000000006F12033B0000000000001D
:00000001FF
