:100000000C9434000C9451000C9451000C94510049
:100010000C9451000C9451000C9451000C94340138
:100020000C9451000C9451000C9451000C94030159
:100030000C9451000C9451000C94D2000C9451007B
:100040000C9451000C9451000C9451000C945100EC
:100050000C9451000C9451000C9451000C945100DC
:100060000C9451000C94510011241FBECFEFD8E026
:10007000DEBFCDBF11E0A0E0B1E0EEE8F6E002C0E7
:1000800005900D92A431B107D9F721E0A4E1B1E0C8
:1000900001C01D92A931B207E1F70E9485010C94BD
:1000A00045030C940000CF92DF92EF92FF920F93E2
:1000B0001F93CF93DF93EC01C880D980EA80FB8047
:1000C00001E010E020E030E040EA50E4C701B60172
:1000D0000E94210287FD02C000E010E01D830C8316
:1000E00001E010E020E030E040E051E4C701B6015B
:1000F0000E94210287FD02C000E010E01F830E83F2
:100100008A899B898230910561F08330910599F04D
:100110000197C9F416BC80916E00826080936E00D6
:1001200016C0109285001092840080916F0082604A
:1001300080936F000CC01092B200809170008260BA
:100140008093700004C081E090E00E9445037894A1
:100150009FB7F894809116019FBF8823C9F310922E
:100160001601EC85FD858C819D81892B19F080819C
:10017000826002C080818D7F8083EE85FF858E81C5
:100180009F81892B19F08081886002C08081877FE0
:100190008083DF91CF911F910F91FF90EF90DF90BF
:1001A000CF9008951F920F920FB60F9211242F93A4
:1001B0003F938F939F938091140190911501019625
:1001C000909315018093140180911601813091F074
:1001D000209114013091150180911701909118011F
:1001E0002817390738F081E0809316011092150125
:1001F000109214019F918F913F912F910F900FBEFC
:100200000F901F9018951F920F920FB60F92112406
:100210002F933F938F939F93809114019091150199
:1002200001969093150180931401809116018130FD
:1002300091F0209114013091150180911701909156
:1002400018012817390738F081E0809316011092C1
:100250001501109214019F918F913F912F910F9052
:100260000FBE0F901F9018951F920F920FB60F920E
:1002700011242F933F938F939F938091140190911A
:100280001501019690931501809314018091160138
:10029000813091F020911401309115018091170166
:1002A000909118012817390738F081E080931601E2
:1002B00010921501109214019F918F913F912F91EF
:1002C0000F900FBE0F901F901895FC01239A25E206
:1002D00030E03787268785B5836085BD41E050E0F3
:1002E000518B408B82E090E090931801809317012E
:1002F00084B5826084BD89EF87BD538B428B219A80
:100300003587248780E090E00895CF92DF92EF92C6
:10031000FF9280E091E00E946501C12CD12C760112
:1003200060E070E0CB016093000170930101809365
:1003300002019093030180E091E00E9453008FEF4F
:10034000C81AD80AE80AF80AC701B6010E942602AC
:100350002FE632E143E05BE30E94D80220E030E088
:10036000A9010E94B501DFCF5058BB27AA270E94E0
:10037000CC010C949E020E94900238F00E949702D9
:1003800020F039F49F3F19F426F40C948D020EF4FA
:10039000E095E7FB0C948702E92F0E94AF0258F327
:1003A000BA17620773078407950720F079F4A6F55A
:1003B0000C94D1020EF4E0950B2EBA2FA02D0B0158
:1003C000B90190010C01CA01A0011124FF27591B9A
:1003D00099F0593F50F4503E68F11A16F040A22FA0
:1003E000232F342F4427585FF3CF46953795279511
:1003F000A795F0405395C9F77EF41F16BA0B620B10
:10040000730B840BBAF09150A1F0FF0FBB1F661F56
:10041000771F881FC2F70EC0BA0F621F731F841F99
:1004200048F4879577956795B795F7959E3F08F0BF
:10043000B0CF9395880F08F09927EE0F9795879581
:1004400008950E94630208F481E00895E89409C0C9
:1004500097FB3EF490958095709561957F4F8F4FF7
:100460009F4F9923A9F0F92F96E9BB279395F6950D
:10047000879577956795B795F111F8CFFAF4BB0F8B
:1004800011F460FF1BC06F5F7F4F8F4F9F4F16C0EF
:10049000882311F096E911C0772321F09EE8872F79
:1004A000762F05C0662371F096E8862F70E060E035
:1004B0002AF09A95660F771F881FDAF7880F9695AE
:1004C000879597F90895990F0008550FAA0BE0E852
:1004D000FEEF16161706E807F907C0F01216130606
:1004E000E407F50798F0621B730B840B950B39F446
:1004F0000A2661F0232B242B252B21F408950A26AC
:1005000009F4A140A6958FEF811D811D089597F9EB
:100510009F6780E870E060E008959FEF80EC0895A9
:1005200000240A94161617061806090608950024D2
:100530000A9412161306140605060895092E03944C
:10054000000C11F4882352F0BB0F40F4BF2B11F4C0
:1005500060FF04C06F5F7F4F8F4F9F4F089557FD1F
:100560009058440F551F59F05F3F71F04795880F21
:1005700097FB991F61F09F3F79F0879508951216B8
:1005800013061406551FF2CF4695F1DF08C0161664
:1005900017061806991FF1CF869571056105089415
:1005A0000895E894BB2766277727CB0197F908952C
:1005B0000E94EB020C949E020E94900238F00E946E
:1005C000970220F0952311F00C9487020C948D0271
:1005D00011240C94D2020E94AF0270F3959FC1F3D4
:1005E000950F50E0551F629FF001729FBB27F00DE1
:1005F000B11D639FAA27F00DB11DAA1F649F662736
:10060000B00DA11D661F829F2227B00DA11D621F84
:10061000739FB00DA11D621F839FA00D611D221F3E
:10062000749F3327A00D611D231F849F600D211D22
:10063000822F762F6A2F11249F5750409AF0F1F0A5
:1006400088234AF0EE0FFF1FBB1F661F771F881F0E
:1006500091505040A9F79E3F510580F00C948702BD
:100660000C94D2025F3FE4F3983ED4F386957795DD
:100670006795B795F795E7959F5FC1F7FE2B880FB4
:0E068000911D9695879597F90895F894FFCFF0
:10068E0000000000010001006F12033B000000009B
:04069E000000000058
:00000001FF
