:100000000C9434000C9451000C9451000C94510049
:100010000C9451000C9451000C9451000C94130159
:100020000C9451000C9451000C9451000C94E2007B
:100030000C9451000C9451000C94B1000C9451009C
:100040000C9451000C9451000C9451000C945100EC
:100050000C9451000C9451000C9451000C945100DC
:100060000C9451000C94510011241FBECFEFD8E026
:10007000DEBFCDBF11E0A0E0B1E0E6EEF6E002C0E9
:1000800005900D92AC31B107D9F721E0ACE1B1E0B8
:1000900001C01D92A132B207E1F70E9468010C94E1
:1000A00071030C940000CF93DF93EC0190917C00DE
:1000B000957E956090937C0080917A008064809317
:1000C0007A0080917A0086FDFCCF60917800709173
:1000D000790080E090E00E94760220E030E040E885
:1000E00054E40E94040320E030EC4FE754E40E9403
:1000F00004026C837D838E839F838A8D9B8D8230E7
:10010000910561F08330910599F00197C9F416BC0F
:1001100080916E00826080936E0016C01092850000
:100120001092840080916F00826080936F000CC0F9
:100130001092B2008091700082608093700004C0C1
:1001400081E090E00E94710378949FB7F8948091C9
:100150001E019FBF8823C9F310921E01DF91CF912A
:1001600008951F920F920FB60F9211242F933F9371
:100170008F939F9380911C0190911D010196909304
:100180001D0180931C0180911E01813091F020910E
:100190001C0130911D0180911F01909120012817B1
:1001A000390738F081E080931E0110921D011092F2
:1001B0001C019F918F913F912F910F900FBE0F9037
:1001C0001F9018951F920F920FB60F9211242F9324
:1001D0003F938F939F9380911C0190911D010196F5
:1001E00090931D0180931C0180911E01813091F03C
:1001F00020911C0130911D0180911F0190912001DF
:100200002817390738F081E080931E0110921D01F4
:1002100010921C019F918F913F912F910F900FBED3
:100220000F901F9018951F920F920FB60F921124E6
:100230002F933F938F939F9380911C0190911D0169
:10024000019690931D0180931C0180911E018130C5
:1002500091F020911C0130911D0180911F0190911E
:1002600020012817390738F081E080931E01109291
:100270001D0110921C019F918F913F912F910F9022
:100280000FBE0F901F901895FC01ACE7B0E08C9169
:10029000806C8C93AAE7B0E08C9187688C93178A66
:1002A000168A85B5836085BD21E030E0318F208FCF
:1002B00082E090E09093200180931F0184B58260DA
:1002C00084BD89EF87BD338F228F80E090E0089551
:1002D000CF92DF92EF92FF9280E091E00E94440182
:1002E000C12CD12C760160E070E0CB01609300015D
:1002F00070930101809302019093030180E091E0EB
:100300000E9453008FEFC81AD80AE80AF80AC701FA
:10031000B6010E9476022FE632E143E05BE30E94E1
:10032000040320E030E0A9010E949801DFCF50587B
:10033000BB27AA270E94AF010C94CA020E94BC02EC
:1003400038F00E94C30220F039F49F3F19F426F4DC
:100350000C94B9020EF4E095E7FB0C94B302E92F7C
:100360000E94DB0258F3BA176207730784079507E8
:1003700020F079F4A6F50C94FD020EF4E0950B2E16
:10038000BA2FA02D0B01B90190010C01CA01A001E7
:100390001124FF27591B99F0593F50F4503E68F142
:1003A0001A16F040A22F232F342F4427585FF3CF83
:1003B000469537952795A795F0405395C9F77EF454
:1003C0001F16BA0B620B730B840BBAF09150A1F09D
:1003D000FF0FBB1F661F771F881FC2F70EC0BA0F23
:1003E000621F731F841F48F4879577956795B795AB
:1003F000F7959E3F08F0B0CF9395880F08F09927A6
:10040000EE0F9795879508950E9418020C94CA02E2
:100410000E94C30258F00E94BC0240F029F45F3FE2
:1004200029F00C94B30251110C94FE020C94B90201
:100430000E94DB0268F39923B1F3552391F3951BD6
:10044000550BBB27AA2762177307840738F09F5FF5
:100450005F4F220F331F441FAA1FA9F335D00E2E62
:100460003AF0E0E832D091505040E695001CCAF7CF
:100470002BD0FE2F29D0660F771F881FBB1F261792
:1004800037074807AB07B0E809F0BB0B802DBF0169
:10049000FF2793585F4F3AF09E3F510578F00C9438
:1004A000B3020C94FE025F3FE4F3983ED4F38695CA
:1004B00077956795B795F7959F5FC9F7880F911D59
:1004C0009695879597F90895E1E0660F771F881F45
:1004D000BB1F621773078407BA0720F0621B730BF8
:1004E000840BBA0BEE1F88F7E0950895E89409C0D5
:1004F00097FB3EF490958095709561957F4F8F4F57
:100500009F4F9923A9F0F92F96E9BB279395F6956C
:10051000879577956795B795F111F8CFFAF4BB0FEA
:1005200011F460FF1BC06F5F7F4F8F4F9F4F16C04E
:10053000882311F096E911C0772321F09EE8872FD8
:10054000762F05C0662371F096E8862F70E060E094
:100550002AF09A95660F771F881FDAF7880F96950D
:10056000879597F9089597F99F6780E870E060E0B4
:1005700008959FEF80EC089500240A94161617063C
:1005800018060906089500240A9412161306140684
:1005900005060895092E0394000C11F4882352F0E7
:1005A000BB0F40F4BF2B11F460FF04C06F5F7F4F9F
:1005B0008F4F9F4F089557FD9058440F551F59F086
:1005C0005F3F71F04795880F97FB991F61F09F3F40
:1005D00079F087950895121613061406551FF2CF69
:1005E0004695F1DF08C0161617061806991FF1CFB9
:1005F00086957105610508940895E894BB276627E0
:100600007727CB0197F908950E9417030C94CA022B
:100610000E94BC0238F00E94C30220F0952311F022
:100620000C94B3020C94B90211240C94FE020E94A3
:10063000DB0270F3959FC1F3950F50E0551F629F49
:10064000F001729FBB27F00DB11D639FAA27F00D2B
:10065000B11DAA1F649F6627B00DA11D661F829F52
:100660002227B00DA11D621F739FB00DA11D621F37
:10067000839FA00D611D221F749F3327A00D611D54
:10068000231F849F600D211D822F762F6A2F112436
:100690009F5750409AF0F1F088234AF0EE0FFF1F69
:1006A000BB1F661F771F881F91505040A9F79E3FC0
:1006B000510580F00C94B3020C94FE025F3FE4F30A
:1006C000983ED4F3869577956795B795F795E79516
:1006D0009F5FC1F7FE2B880F911D9695879597F91F
:0606E0000895F894FFCF1D
:1006E6000000000000000000000000006F12033B45
:0C06F600020001000000000000000000F5
:00000001FF
